:100000000C9462000C948A000C948A000C948A0070
:100010000C948A000C948A000C948A000C948A0038
:100020000C948A000C948A000C948A000C94EC04C2
:100030000C948A000C948A000C948A000C948A0018
:100040000C94A2040C948A000C9470040C944A043E
:100050000C948A000C948A000C948A000C948A00F8
:100060000C948A000C948A000000000024002700F1
:100070002A0000000000250028002B0000000008D6
:10008000000201000003040700000000000000005F
:1000900000000000230026002900040404040404D6
:1000A0000404020202020202030303030303010227
:1000B00004081020408001020408102001020408F6
:1000C0001020ED0511241FBECFEFD8E0DEBFCDBF5D
:1000D00011E0A0E0B1E0E8E3F4E102C005900D9288
:1000E000A233B107D9F722E0A2E3B1E001C01D922B
:1000F000AB31B207E1F710E0C2E6D0E004C02197CF
:10010000FE010E94140AC136D107C9F70E94760683
:100110000C941A0A0C940000E0910002EC3088F56F
:100120004091010228E830E0241B310947FD339556
:10013000220F331F220F331F8217930784F0409141
:10014000020228E532E0241B310947FD3395220FD6
:10015000331F220F331F821793070CF49C01225088
:100160003109220F331F4FB7F8948E2F90E0FC0116
:10017000EE0FFF1FE80FF91FE552FE4F3283218378
:100180004FBF0895AF92BF92CF92DF92EF92FF924E
:100190000F931F93CF93DF936C017B018B01040FAF
:1001A000151FEB015E01AE18BF08C017D10759F04B
:1001B0006991D601ED91FC910190F081E02DC6018D
:1001C0000995892B79F7C501DF91CF911F910F9187
:1001D000FF90EF90DF90CF90BF90AF900895FC011B
:1001E000538D448D252F30E0842F90E0821B930B9C
:1001F000541710F0CF96089501970895FC01918D42
:10020000828D981761F0A28DAE0FBF2FB11D5D9644
:100210008C91928D9F5F9F73928F90E008958FEFE6
:100220009FEF0895FC01918D828D981731F0828D9A
:10023000E80FF11D858D90E008958FEF9FEF0895F1
:10024000FC01918D228D892F90E0805C9F4F821B55
:1002500091098F73992708958EE391E00E94200100
:1002600021E0892B09F420E0822F089580E090E0BE
:10027000892B29F00E942C0181110C940000089513
:10028000FC01A48DA80FB92FB11DA35ABF4F2C910B
:10029000848D90E001968F739927848FA689B78902
:1002A0002C93A089B1898C91837080648C93938DF9
:1002B000848D981306C00288F389E02D80818F7D9C
:1002C00080830895EF92FF920F931F93CF93DF9354
:1002D000EC0181E0888F9B8D8C8D98131AC0E88982
:1002E000F989808185FF15C09FB7F894EE89FF8951
:1002F0006083E889F98980818370806480839FBFEF
:1003000081E090E0DF91CF911F910F91FF90EF90EE
:100310000895F62E0B8D10E00F5F1F4F0F731127FE
:10032000E02E8C8D8E110CC00FB607FCFACFE88939
:10033000F989808185FFF5CFCE010E944001F1CF80
:10034000EB8DEC0FFD2FF11DE35AFF4FF0829FB7AD
:10035000F8940B8FEA89FB8980818062CFCFCF939D
:10036000DF93EC01888D8823B9F0AA89BB89E889DD
:10037000F9898C9185FD03C0808186FD0DC00FB683
:1003800007FCF7CF8C9185FFF2CF808185FFEDCF01
:10039000CE010E944001E9CFDF91CF91089590E016
:1003A000FC01E458FF4F2491FC01E255FF4F3491CA
:1003B000FC01E656FF4FE491EE23C9F0222339F009
:1003C000233001F1A8F4213019F1223029F1F0E0B5
:1003D000EE0FFF1FEE58FF4FA591B4918FB7F89421
:1003E000EC91611126C030953E233C938FBF089558
:1003F0002730A9F02830C9F0243049F780918000D7
:100400008F7D03C0809180008F7780938000DFCF45
:1004100084B58F7784BDDBCF84B58F7DFBCF809192
:10042000B0008F778093B000D2CF8091B0008F7DE5
:10043000F9CF3E2BDACFCF93DF9390E0FC01E2556A
:10044000FF4F249186569F4FFC0184918823D1F061
:1004500090E0880F991FFC01E859FF4FA591B491D6
:10046000FC01EE58FF4FC591D49161110EC09FB7AA
:10047000F8948C91E22FE0958E238C932881E223CF
:10048000E8839FBFDF91CF9108958FB7F894EC91E7
:10049000E22BEC938FBFF6CF3FB7F89480913801F1
:1004A00090913901A0913A01B0913B0126B5A89BEA
:1004B00005C02F3F19F00196A11DB11D3FBFBA2FF6
:1004C000A92F982F8827BC01CD01620F711D811DB6
:1004D000911D42E0660F771F881F991F4A95D1F73B
:1004E00008958F929F92AF92BF92CF92DF92EF9238
:1004F000FF924B015C010E944C026B017C010E9447
:100500004C026C197D098E099F09683E7340810574
:100510009105A8F321E0821A9108A108B10888EE9C
:10052000C80E83E0D81EE11CF11C81149104A104C3
:10053000B10429F7FF90EF90DF90CF90BF90AF907C
:100540009F908F900895089590E080E00895CF9354
:10055000DF93EC0160E08E810E94CF0161E08E812B
:100560000E94CF0160E08E810E94CF018BE891E074
:100570000197F1F7DF91CF910895CF92DF92EF923B
:10058000FF920F931F93CF93DF936C017C0187E061
:10059000E80EF11CD0E0C0E0062F10E0B8010C2EF0
:1005A00002C0759567950A94E2F76170F701819131
:1005B0007F010E94CF012196C430D10579F7C60191
:1005C000DF91CF911F910F91FF90EF90DF90CF902F
:1005D0000C94A702CF92DF92EF92FF920F931F939A
:1005E000CF93DF93EC01F62E642F8C810E94CF0114
:1005F0008D818F3F19F060E00E94CF010F2D10E038
:100600008F8584FF25C06E0187E0C80ED11CF12CB8
:10061000E12CB8010E2C02C0759567950A94E2F79B
:100620006170F60181916F010E94CF01FFEFEF1A17
:10063000FF0A88E0E816F10461F7CE01DF91CF915F
:100640001F910F91FF90EF90DF90CF900C94A70235
:10065000B80184E0759567958A95E1F7CE010E940F
:10066000BD026F2DCE01DF91CF911F910F91FF90B1
:10067000EF90DF90CF900C94BD0240E0682F83E0B4
:1006800092E00C94EA02CF93DF93823029F49091A8
:100690001202986090931202809316021092170231
:1006A00080E48093180280E18093190280E58093B2
:1006B0001A0261E0809107020E941B0280910802E9
:1006C0008F3F19F061E00E941B0261E080910902F6
:1006D0000E941B02C3E0D2E09E0123503240809171
:1006E000120284FD0BC084E090E0219628173907A0
:1006F00044F461E08E810E941B02EECF88E090E01E
:10070000F4CF8BE39DE00197F1F760E08091070261
:100710000E94CF0160E0809109020E94CF01809188
:1007200008028F3F19F060E00E94CF018091120211
:1007300084FD39C063E083E092E00E94BD02CBE417
:10074000D6E4CE010197F1F763E083E092E00E94E6
:10075000BD022197F1F763E083E092E00E94BD02C1
:1007600083E592E00197F1F762E083E092E00E9476
:10077000BD028091120280620E943D0384E080935A
:1007800013028CE00E943D0381E00E943D038BE355
:100790009FE10197F1F782E08093140286E0DF91F8
:1007A000CF910C943D0380620E943D038BE496E45C
:1007B0000197F1F78091120280620E943D0383E568
:1007C00092E00197F1F78091120280620E943D034E
:1007D000D0CF41E00E94EA0281E090E00895FB0161
:1007E00001900020E9F73197AF01461B570BDC0160
:1007F000ED91FC910280F381E02D09948F929F92FC
:10080000AF92BF92EF92FF920F931F93CF93DF931C
:10081000CDB7DEB7A1970FB6F894DEBF0FBECDBF40
:100820007C01FA01CB0119A2223008F42AE08E01E2
:100830000F5D1F4F822E912CB12CA12CBF01A50161
:1008400094010E94A608F901CA016A300CF5605DA6
:10085000D8016E938D01232B242B252B79F790E063
:1008600080E0109721F0BD01C7010E94EF03A1961F
:100870000FB6F894DEBF0FBECDBFDF91CF911F91B1
:100880000F91FF90EF90BF90AF909F908F90089541
:10089000695CDECF1F920F920FB60F9211242F9337
:1008A0003F934F935F936F937F938F939F93AF93F8
:1008B000BF93EF93FF938EE391E00E944001FF917D
:1008C000EF91BF91AF919F918F917F916F915F91C8
:1008D0004F913F912F910F900FBE0F901F90189541
:1008E0001F920F920FB60F9211242F938F939F9305
:1008F000EF93FF93E0914E01F0914F018081E091E1
:100900005401F091550182FD1BC0908180915701E7
:100910008F5F8F7320915801821741F0E09157014A
:10092000F0E0E25CFE4F958F80935701FF91EF91CD
:100930009F918F912F910F900FBE0F901F90189540
:100940008081F4CF1F920F920FB60F9211242F9334
:100950003F938F939F93AF93BF9380913401909176
:100960003501A0913601B09137013091330123E078
:10097000230F2D3758F50196A11DB11D209333018A
:100980008093340190933501A0933601B0933701E1
:100990008091380190913901A0913A01B0913B01C9
:1009A0000196A11DB11D8093380190933901A09348
:1009B0003A01B0933B01BF91AF919F918F913F91CD
:1009C0002F910F900FBE0F901F90189526E8230FC0
:1009D0000296A11DB11DD2CF1F920F920FB60F929A
:1009E00011242F933F934F935F936F937F938F9334
:1009F0009F93AF93BF93CF93DF93EF93FF93809138
:100A00003201C091FF01D0E087FF24C01092850021
:100A100010928400809132018F5F80933201809127
:100A20003201082E000C990B8C179D0724F480913D
:100A300032018C30C4F1809184009091850004963D
:100A400080349C4908F47AC080918400909185009C
:100A5000049676C080913201082E000C990B8C17F9
:100A60009D07C4F6E09132018E2FEE0F990BFC0129
:100A7000EE0FFF1FE80FF91FE552FE4F808186FF42
:100A8000C9CFE09132018E2FEE0F990BFC01EE0FD2
:100A9000FF1FE80FF91FE552FE4F808160E08F7362
:100AA0000E94CF01B7CF2091840030918500E09162
:100AB00032018E2FEE0F990BFC01EE0FFF1FE80F96
:100AC000F91FE552FE4F81819281820F931F90930F
:100AD000890080938800E09132018E2FEE0F990BF0
:100AE000FC01EE0FFF1FE80FF91FE552FE4F80815A
:100AF00086FF11C0E09132018E2FEE0F990BFC01A1
:100B0000EE0FFF1FE80FF91FE552FE4F808161E0F5
:100B10008F730E94CF01FF91EF91DF91CF91BF9131
:100B2000AF919F918F917F916F915F914F913F9185
:100B30002F910F900FBE0F901F90189580E49CE9A5
:100B400090938900809388008FEF80933201E3CFE8
:100B5000CF92DF92EF92FF920F931F93E82FF92F1E
:100B600005C0015011092109310961F190819623D5
:100B70009417B9F305C0015011092109310911F188
:100B8000908196239413F7CFC12CD12CE12CF12C1A
:100B90000AC08FEFC81AD80AE80AF80A0C151D0512
:100BA0002E053F0579F080818623841791F36C2D03
:100BB0007D2D8E2D9F2D1F910F91FF90EF90DF9037
:100BC000CF90089560E070E080E090E01F910F9179
:100BD000FF90EF90DF90CF900895CF931092410156
:100BE0001092400188EE93E0A0E0B0E080934201D3
:100BF00090934301A0934401B093450184E091E0B8
:100C000090933F0180933E0185EC90E090934B01DF
:100C100080934A0184EC90E090934D0180934C01C5
:100C200080EC90E090934F0180934E0181EC90E036
:100C3000909351018093500182EC90E09093530186
:100C40008093520186EC90E090935501809354017B
:100C500010925701109258011092590110925A01A6
:100C6000109206021092050286E191E09093040230
:100C70008093030287E080930702CFEFC0930802BE
:100C800086E08093090284E080930A0283E08093E7
:100C90000B0282E080930C0281E080930D0210929F
:100CA0000E0210920F021092100210921102109276
:100CB00012020E9443038091FF018C30A0F491E066
:100CC000980F9093FF018093000290E0FC01EE0FDB
:100CD000FF1FE80FF91FE552FE4F88EB9BE0928360
:100CE0008183CF910895C0930002FBCF789484B59F
:100CF000826084BD84B5816084BD85B5826085BD18
:100D000085B5816085BD80916E00816080936E00A5
:100D10001092810080918100826080938100809197
:100D20008100816080938100809180008160809348
:100D300080008091B10084608093B1008091B00008
:100D400081608093B00080917A00846080937A0003
:100D500080917A00826080937A0080917A0081602D
:100D600080937A0080917A00806880937A00109254
:100D7000C10082E00E944303809100028C3008F0A1
:100D800051C061E088E00E941B0280910002282F80
:100D900030E0F901EE0FFF1FE20FF31FE552FE4FA7
:100DA0009081907C986090831092010210920202D0
:100DB0002CE0622F0E94080A829FB001112430E0CB
:100DC00020E0AB01420F531FFA01EE0FFF1FE40FAB
:100DD000F51FE552FE4F908196FD16C02F5F3F4FE5
:100DE0002C30310571F781110FC01092800082E024
:100DF000809381001092850010928400B19A8091B6
:100E00006F00826080936F00E09100028E2F90E06F
:100E1000FC01EE0FFF1FE80FF91FE552FE4F808126
:100E20008064808361E089E00E941B0260E08AE0C8
:100E30000E941B0261E08BE00E941B0261E08DE0DA
:100E40000E941B02E0914E01F0914F0182E08083ED
:100E5000E0914A01F0914B011082E0914C01F09138
:100E60004D018FEC808310925601E0915201F09178
:100E7000530186E08083E0915001F091510180811F
:100E800080618083E0915001F09151018081886000
:100E90008083E0915001F0915101808180688083CE
:100EA000E0915001F091510180818F7D808363E258
:100EB000262E312CC8E8D0E078E5872E72E0972EF8
:100EC000E4EB4E2E512C612C712CF0E0AF2EF0E0B3
:100ED000BF2E60E089E00E94CF0183E090E001979F
:100EE000F1F761E089E00E94CF01C1010197F1F7BC
:100EF00060E089E00E94CF01E8EBF0E06491E4EA71
:100F0000F0E08491E82FF0E0EE0FFF1FE057FF4F75
:100F10008591949100E412E42FE030E0462F0E9486
:100F2000A805611571058105910529F06F5F7F4F57
:100F30008F4F9F4F9F700E940F0926E933E44BE0CB
:100F40005DE30E94730920E030E040E05FE30E942F
:100F500073090E94D70870933D0160933C016B3088
:100F600071050CF0B4C061E08BE00E94CF0161E03C
:100F70008DE00E94CF01809101026E01C81AD10854
:100F800087FDD394CC0CDD1CCC0CDD1C0D2C000C8F
:100F9000EE08FF08809102029401281B310987FDA9
:100FA0003395220F331F220F331F032E000C440BE7
:100FB000550B2C193D094E095F09AAE5B0E00E94C6
:100FC0009B08A30192010E947C08DA01C9018C0DE3
:100FD0009D1DAE1DBF1D0E948C006FE070E080E083
:100FE00090E00E9471026EE171E08EE391E00E9458
:100FF000EF03C0903C01D0903D010D2C000CEE0899
:10100000FF082AE0B701A601F7FE0DC06DE28EE3EE
:1010100091E00E94620144275527BA014C195D09ED
:101020006E097F092AE08EE391E00E94FE0369E2E7
:1010300071E08EE391E00E94EF03E1E080911602FF
:101040008111E0E0E195F0E0ED5FFD4F848980687B
:101050000E943D036EE171E083E092E00E94EF03A5
:10106000C0903C01D0903D010D2C000CEE08FF0813
:101070002AE0B701A601F7FE0EC041E06DE283E071
:1010800092E00E94EA0244275527BA014C195D09F3
:101090006E097F092AE083E092E00E94FE036CE281
:1010A00071E083E092E00E94EF036AE070E080E08C
:1010B00090E00E947102A114B10409F40ACF0E94C9
:1010C0002C01882309F405CF0E94000002CF60E0C4
:1010D0008BE00E94CF0160E08DE00E94CF01809103
:1010E00001029E01281B310987FD3395C901880F34
:1010F000991F880F991F6FCF052E97FB1EF4009440
:101100000E94930857FD07D00E94A60807FC03D051
:101110004EF40C94930850954095309521953F4F8F
:101120004F4F5F4F089590958095709561957F4FD3
:101130008F4F9F4F08950E94C808A59F900DB49FA0
:10114000900DA49F800D911D11240895A1E21A2EE7
:10115000AA1BBB1BFD010DC0AA1FBB1FEE1FFF1F5B
:10116000A217B307E407F50720F0A21BB30BE40BAB
:10117000F50B661F771F881F991F1A9469F76095F2
:101180007095809590959B01AC01BD01CF010895AC
:10119000A29FB001B39FC001A39F700D811D1124B8
:1011A000911DB29F700D811D1124911D08950E9403
:1011B000DE086894B1110C946D0908950E945209DB
:1011C00088F09F5798F0B92F9927B751B0F0E1F008
:1011D000660F771F881F991F1AF0BA95C9F714C0B8
:1011E000B13091F00E946C09B1E008950C946C0943
:1011F000672F782F8827B85F39F0B93FCCF38695F1
:1012000077956795B395D9F73EF49095809570954D
:1012100061957F4F8F4F9F4F0895E89409C097FBCA
:101220003EF490958095709561957F4F8F4F9F4FBD
:101230009923A9F0F92F96E9BB279395F695879501
:1012400077956795B795F111F8CFFAF4BB0F11F4C4
:1012500060FF1BC06F5F7F4F8F4F9F4F16C088236B
:1012600011F096E911C0772321F09EE8872F762FA1
:1012700005C0662371F096E8862F70E060E02AF0E2
:101280009A95660F771F881FDAF7880F96958795CE
:1012900097F9089557FD9058440F551F59F05F3F37
:1012A00071F04795880F97FB991F61F09F3F79F088
:1012B00087950895121613061406551FF2CF46950A
:1012C000F1DF08C0161617061806991FF1CF86958C
:1012D0007105610508940895E894BB276627772770
:1012E000CB0197F908950E9486090C94F7090E9492
:1012F000E90938F00E94F00920F0952311F00C94D0
:10130000E0090C94E60911240C946D090E944A0925
:1013100070F3959FC1F3950F50E0551F629FF00148
:10132000729FBB27F00DB11D639FAA27F00DB11D61
:10133000AA1F649F6627B00DA11D661F829F2227EA
:10134000B00DA11D621F739FB00DA11D621F839F71
:10135000A00D611D221F749F3327A00D611D231F47
:10136000849F600D211D822F762F6A2F11249F5795
:1013700050409AF0F1F088234AF0EE0FFF1FBB1F98
:10138000661F771F881F91505040A9F79E3F510557
:1013900080F00C94E0090C946D095F3FE4F3983EF3
:1013A000D4F3869577956795B795F795E7959F5F01
:1013B000C1F7FE2B880F911D9695879597F9089593
:1013C00097F99F6780E870E060E008959FEF80ECF8
:1013D000089500240A94161617061806090608959B
:1013E00000240A9412161306140605060895092E01
:1013F0000394000C11F4882352F0BB0F40F4BF2B70
:1014000011F460FF04C06F5F7F4F8F4F9F4F0895AF
:10141000991B79E004C0991F961708F0961B881F46
:101420007A95C9F780950895EE0FFF1F0590F49106
:08143000E02D0994F894FFCFB0
:10143800000000006201C200EF00AF012001FE00C1
:10144800120100000000E903C200A402A3024469DB
:101458007374616E63653A20000D0A002020636D85
:02146800000082
:00000001FF
